:020000040800F2
:10000000988B0520597E06089364060895640608B7
:1000100097640608996406089B640608B17E060882
:100020000000000000000000000000009D640608C1
:100030009F64060800000000D5BD040839BA040812
:10004000B57E0608B97E0608BD640608BD7E0608B2
:10005000C17E0608C57E0608C97E0608CD7E060854
:10006000D17E0608D57E0608D97E0608DD7E060804
:1000700039640608E17E0608E57E0608E97E060882
:10008000ED7E0608F17E0608A1640608F57E0608E6
:10009000F97E0608FD7E0608017F0608057F060832
:1000A00031640608097F06080D7F0608117F0608DF
:1000B0007B640608AD640608B5640608157F06086B
:1000C000197F06081D7F0608217F0608257F060880
:1000D000297F06082D7F0608317F0608357F060830
:1000E000397F06083D7F0608417F0608457F0608E0
:1000F000497F06084D7F0608517F0608557F060890
:10010000597F06087F6406085D7F0608617F060840
:10011000657F0608697F06086D7F0608717F0608FF
:10012000757F0608797F06084F6406087D7F0608FC
:10013000817F0608857F0608897F06088D7F06086F
:10014000917F0608957F0608997F06089D7F06081F
:10015000A17F0608A57F0608A97F0608AD7F0608CF
:10016000B17F0608B57F060853640608B97F060804
:1001700077640608BD7F0608C17F0608A7640608E5
:10018000C57F0608C97F0608CD7F0608D17F06080F
:10019000D57F0608D97F0608DD7F0608E17F0608BF
:1001A000E57F0608E97F0608ED7F0608F17F06086F
:1001B000F57F0608F97F0608FD7F0608018006081E
:1001C00005800608098006080D80060811800608CB
:1001D00015800608198006081D800608218006087B
:1001E00025800608298006082D800608318006082B
:1001F00035800608398006083D80060841800608DB
:1002000045800608498006084D800608518006088A
:1002100055800608598006085D800608618006083A
:1002200065800608698006086D80060871800608EA
:1002300075800608798006087D800608818006089A
:1002400085800608898006088D80060880FE80FE6D
:1002500080FE80FE80FE80FE80FE80FE80FE80FEAE
:1002600080FE80FE80FE80FE80FE80FE80FE80FE9E
:1002700080FE80FE80FE80FE80FE80FE80FE80FE8E
:1002800080FE80FE80FE80FE80FE80FE80FE80FE7E
:102BD00080FE80FE80FE80FE60F6C3D5659467634C
:102BE00088422B2AEB19CB19CB19CB19CB19CB194E
:102BF000CB19CB19CB19CB19CB19CB19CB19CB19B5
:102C0000CB19CB19CB19CB19CB19CB19CB19CB19A4
:102C1000CB19CB19CB19CB19CB19CB19CB19CB1994
:102C2000CB19CB19CB19CB19CB19CB19CB19CB1984
:102C3000CB19CB19CB19CB19CB19CB19CB19CB1974
:102C4000CB19CB19CB19CB19CB19CB19CB19CB1964
:102C5000CB19CB19CB19CB19CB19CB19CB19CB1954
:102C6000CB19CB19CB19CB19CB19CB19CB19CB1944
:102C7000CB19CB19CB19CB19CB19CB19CB19CB1934
:102C8000CB19CB19CB19CB19CB19CB19CB19CB1924
:102C9000CB19CB19CB19CB19CB19CB19CB19CB1914
:102CA000CB19CB19CB19CB19CB19CB19CB19CB1904
:102CB000CB19CB19CB19CB19CB19CB19CA4261F659
:102CC00080FE80FE80FE80FE80FE80FE80FE80FE14
:102CD00080FE80FE80FE80FE80FE80FE80FE80FE04
:102CE00080FE80FE80FE80FE80FE80FE80FE80FEF4
:102CF00080FE80FE80FE80FE80FE80FE80FE80FEE4
:102D000080FE80FE80FE80FE80FE80FE80FE80FED3
:102D100080FE80FE80FE80FE80FE80FE80FE80FEC3
:102D200080FE80FE80FE80FE02E60684082A2901DD
:102D30000901090109010901090109010901090143
:102D40000901090109010901090109010901090133
:102D50000901090109010901090109010901090123
:102D60000901090109010901090109010901090113
:102D70000901090109010901090109010901090103
:102D800009010901090109010901090109010901F3
:102D900009010901090109010901090109010901E3
:102DA00009010901090109010901090109010901D3
:102DB00009010901090109010901090109010901C3
:102DC00009010901090109010901090109010901B3
:102DD00009010901090109010901090109010901A3
:102DE0000901090109010901090109010901090193
:102DF0000901090109010901090109010901090183
:102E00000901090109010901090109010901090172
:102E1000290123E680FE80FE80FE80FE80FE80FE8B
:102E200080FE80FE80FE80FE80FE80FE80FE80FEB2
:102E300080FE80FE80FE80FE80FE80FE80FE80FEA2
:102E400080FE80FE80FE80FE80FE80FE80FE80FE92
:102E500080FE80FE80FE80FE80FE80FE80FE80FE82
:102E600080FE80FE80FE80FE80FE80FE80FE80FE72
:102E700080FE80FE80FE80FE22E6A76B69090901C4
:102E800009010901090109010901090109010901F2
:102E900009010901090109010901090109010901E2
:102EA00009010901090109010901090109010901D2
:102EB00009010901090109010901090109010901C2
:102EC00009010901090109010901090109010901B2
:102ED00009010901090109010901090109010901A2
:102EE0000901090109010901090109010901090192
:102EF0000901090109010901090109010901090182
:102F00000901090109010901090109010901090171
:102F10000901090109010901090109010901090161
:102F20000901090109010901090109010901090151
:102F30000901090109010901090109010901090141
:102F40000901090109010901090109010901090131
:102F50000901090109010901090109010901090121
:102F600009010901C84A80FE80FE80FE80FE80FEC5
:102F700080FE80FE80FE80FE80FE80FE80FE80FE61
:102F800080FE80FE80FE80FE80FE80FE80FE80FE51
:102F900080FE80FE80FE80FE80FE80FE80FE80FE41
:102FA00080FE80FE80FE80FE80FE80FE80FE80FE31
:102FB00080FE80FE80FE80FE80FE80FE80FE80FE21
:102FC00080FE80FE80FE80FE80FEE4ACA91909012F
:102FD00009010901090109010901090109010901A1
:102FE0000901090109010901090109010901090191
:102FF0000901090109010901090109010901090181
:103000000901090109010901090109010901090170
:103010000901090109010901090109010901090160
:103020000901090109010901090109010901090150
:103030000901090109010901090109010901090140
:103040000901090109010901090109010901090130
:103050000901090109010901090109010901090120
:103060000901090109010901090109010901090110
:103070000901090109010901090109010901090100
:1030800009010901090109010901090109010901F0
:1030900009010901090109010901090109010901E0
:1030A00009010901090109010901090109010901D0
:1030B000090109010901290104B580FE80FE80FE95
:1030C00080FE80FE80FE80FE80FE80FE80FE80FE10
:1030D00080FE80FE80FE80FE80FE80FE80FE80FE00
:1030E00080FE80FE80FE80FE80FE80FE80FE80FEF0
:1030F00080FE80FE80FE80FE80FE80FE80FE80FEE0
:1031000080FE80FE80FE80FE80FE80FE80FE80FECF
:1031100080FE80FE80FE80FE80FE60F6C77329017F
:10312000090109010901090109010901090109014F
:10313000090109010901090109010901090109013F
:10314000090109010901090109010901090109012F
:10315000090109010901090109010901090109011F
:10316000090109010901090109010901090109010F
:1031700009010901090109010901090109010901FF
:1031800009010901090109010901090109010901EF
:1031900009010901090109010901090109010901DF
:1031A00009010901090109010901090109010901CF
:1031B00009010901090109010901090109010901BF
:1031C00009010901090109010901090109010901AF
:1031D000090109010901090109010901090109019F
:1031E000090109010901090109010901090109018F
:1031F000090109010901090109010901090109017F
:1032000009010901090109010901E92160F680FEAE
:1032100080FE80FE80FE80FE80FE80FE80FE80FEBE
:1032200080FE80FE80FE80FE80FE80FE80FE80FEAE
:1032300080FE80FE80FE80FE80FE80FE80FE80FE9E
:1032400080FE80FE80FE80FE80FE80FE80FE80FE8E
:1032500080FE80FE80FE80FE80FE80FE80FE80FE7E
:1032600080FE80FE80FE80FE80FE80FE61F6E94AE0
:1032700009010901090109010901090109010901FE
:1032800009010901090109010901090109010901EE
:1032900009010901090109010901090109010901DE
:1032A00009010901090109010901090109010901CE
:1032B00009010901090109010901090109010901BE
:1032C00009010901090109010901090109010901AE
:1032D000090109010901090109010901090109019E
:1032E000090109010901090109010901090109018E
:1032F000090109010901090109010901090109017E
:10330000090109010901090109010901090109016D
:10331000090109010901090109010901090109015D
:10332000090109010901090109010901090109014D
:10333000090109010901090109010901090109013D
:10334000090109010901090109010901090109012D
:103350000901090109010901090109010901258C76
:1033600080FE80FE80FE80FE80FE80FE80FE80FE6D
:1033700080FE80FE80FE80FE80FE80FE80FE80FE5D
:1033800080FE80FE80FE80FE80FE80FE80FE80FE4D
:1033900080FE80FE80FE80FE80FE80FE80FE80FE3D
:1033A00080FE80FE80FE80FE80FE80FE80FE80FE2D
:1033B00080FE80FE80FE80FE80FE80FE80FE60F645
:1033C0000A5309010901090109010901090109015A
:1033D000090109010901090109010901090109019D
:1033E000090109010901090109010901090109018D
:1033F000090109010901090109010901090109017D
:10340000090109010901090109010901090109016C
:10341000090109010901090109010901090109015C
:10342000090109010901090109010901090109014C
:10343000090109010901090109010901090109013C
:10344000090109010901090109010901090109012C
:10345000090109010901090109010901090109011C
:10346000090109010901090109010901090109010C
:1034700009010901090109010901090109010901FC
:1034800009010901090109010901090109010901EC
:1034900009010901090109010901090109010901DC
:1034A00009010901090109010901090109010901CC
:1034B000690902E680FE80FE80FE80FE80FE80FEBE
:1034C00080FE80FE80FE80FE80FE80FE80FE80FE0C
:1034D00080FE80FE80FE80FE80FE80FE80FE80FEFC
:1034E00080FE80FE80FE80FE80FE80FE80FE80FEEC
:1034F00080FE80FE80FE80FE80FE80FE80FE80FEDC
:1035000080FE80FE80FE80FE80FE80FE80FE80FECB
:1035100080F6676B09010901090109010901090127
:10352000090109010901090109010901090109014B
:10353000090109010901090109010901090109013B
:10354000090109010901090109010901090109012B
:10355000090109010901090109010901090109011B
:10356000090109010901090109010901090109010B
:1035700009010901090109010901090109010901FB
:1035800009010901090109010901090109010901EB
:1035900009010901090109010901090109010901DB
:1035A00009010901090109010901090109010901CB
:1035B00009010901090109010901090109010901BB
:1035C00009010901090109010901090109010901AB
:1035D000090109010901090109010901090109019B
:1035E000090109010901090109010901090109018B
:1035F000090109010901090109010901090109017B
:1036000009010901285B80FE80FE80FE80FE80FEAD
:1036100080FE80FE80FE80FE80FE80FE80FE80FEBA
:1036200080FE80FE80FE80FE80FE80FE80FE80FEAA
:1036300080FE80FE80FE80FE80FE80FE80FE80FE9A
:1036400080FE80FE80FE80FE80FE80FE80FE80FE8A
:1036500080FE80FE80FE80FE80FE80FE80FE80FE7A
:1036600080FE80FEA5A429010901090109010901C3
:1036700009010901090109010901090109010901FA
:1036800009010901090109010901090109010901EA
:1036900009010901090109010901090109010901DA
:1036A00009010901090109010901090109010901CA
:1036B00009010901090109010901090109010901BA
:1036C00009010901090109010901090109010901AA
:1036D000090109010901090109010901090109019A
:1036E000090109010901090109010901090109018A
:1036F000090109010901090109010901090109017A
:103700000901090109010901090109010901090169
:103710000901090109010901090109010901090159
:103720000901090109010901090109010901090149
:103730000901090109010901090109010901090139
:103740000901090109010901090109010901090129
:10375000090109010901090163C580FE80FE80FE9F
:1037600080FE80FE80FE80FE80FE80FE80FE80FE69
:1037700080FE80FE80FE80FE80FE80FE80FE80FE59
:1037800080FE80FE80FE80FE80FE80FE80FE80FE49
:1037900080FE80FE80FE80FE80FE80FE80FE80FE39
:1037A00080FE80FE80FE80FE80FE80FE80FE80FE29
:1037B00080FE80FE80FE02E68911090109010901EF
:1037C00009010901090109010901090109010901A9
:1037D0000901090109010901090109010901090199
:1037E0000901090109010901090109010901090189
:1037F0000901090109010901090109010901090179
:103800000901090109010901090109010901090168
:103810000901090109010901090109010901090158
:103820000901090109010901090109010901090148
:103830000901090109010901090109010901090138
:103840000901090109010901090109010901090128
:103850000901090109010901090109010901090118
:103860000901090109010901090109010901090108
:1038700009010901090109010901090109010901F8
:1038800009010901090109010901090109010901E8
:1038900009010901090109010901090109010901D8
:1038A00009010901090109010901493280FE80FE6F
:1038B00080FE80FE80FE80FE80FE80FE80FE80FE18
:1038C00080FE80FE80FE80FE80FE80FE80FE80FE08
:1038D00080FE80FE80FE80FE80FE80FE80FE80FEF8
:1038E00080FE80FE80FE80FE80FE80FE80FE80FEE8
:1038F00080FE80FE80FE80FE80FE80FE80FE80FED8
:1039000080FE80FE80FE80FE80FE66630901090164
:103910000901090109010901090109010901090157
:103920000901090109010901090109010901090147
:103930000901090109010901090109010901090137
:103940000901090109010901090109010901090127
:103950000901090109010901090109010901090117
:103960000901090109010901090109010901090107
:1039700009010901090109010901090109010901F7
:1039800009010901090109010901090109010901E7
:1039900009010901090109010901090109010901D7
:1039A00009010901090109010901090109010901C7
:1039B00009010901090109010901090109010901B7
:1039C00009010901090109010901090109010901A7
:1039D0000901090109010901090109010901090197
:1039E0000901090109010901090109010901090187
:1039F0000901090109010901090109010901859C60
:103A000080FE80FE80FE80FE80FE80FE80FE80FEC6
:103A100080FE80FE80FE80FE80FE80FE80FE80FEB6
:103A200080FE80FE80FE80FE80FE80FE80FE80FEA6
:103A300080FE80FE80FE80FE80FE80FE80FE80FE96
:103A400080FE80FE80FE80FE80FE80FE80FE80FE86
:103A500080FE80FE80FE80FE80FE80FEE2DD490961
:103A60000901090109010901090109010901090106
:103A700009010901090109010901090109010901F6
:103A8000090109010901290169096932495BC57BFD
:103A90000684478C679467946794679467946794E7
:103AA000679467946794679467946794679467943E
:103AB000679467946794679467946794679467942E
:103AC000679467946794679467946794679467941E
:103AD000679467946794679467946794679467940E
:103AE00067946794679467946794679467946794FE
:103AF00067946794679467946794679467946794EE
:103B000067946794679467946794679467946794DD
:103B100067946794679467946794679467946794CD
:103B200067946794679467946794679467946794BD
:103B300067946794679467946794679467946794AD
:103B4000679467946794679467946794679467949D
:103B5000C6A460F680FE80FE80FE80FE80FE80FEB1
:103B600080FE80FE80FE80FE80FE80FE80FE80FE65
:103B700080FE80FE80FE80FE80FE80FE80FE80FE55
:103B800080FE80FE80FE80FE80FE80FE80FE80FE45
:103B900080FE80FE80FE80FE80FE80FE80FE80FE35
:103BA00080FE80FE80FE80FE80FE80FE80FE80FE25
:103BB000C773090109010901090109010901090185
:103BC00009010901090109010901090109010901A5
:103BD000090109010901E921C67B63C561F680FE7F
:103BE00080FE80FE80FE80FE80FE80FE80FE80FEE5
:103BF00080FE80FE80FE80FE80FE80FE80FE80FED5
:103C000080FE80FE80FE80FE80FE80FE80FE80FEC4
:103C100080FE80FE80FE80FE80FE80FE80FE80FEB4
:103C200080FE80FE80FE80FE80FE80FE80FE80FEA4
:103C300080FE80FE80FE80FE80FE80FE80FE80FE94
:103C400080FE80FE80FE80FE80FE80FE80FE80FE84
:103C500080FE80FE80FE80FE80FE80FE80FE80FE74
:103C600080FE80FE80FE80FE80FE80FE80FE80FE64
:103C700080FE80FE80FE80FE80FE80FE80FE80FE54
:103C800080FE80FE80FE80FE80FE80FE80FE80FE44
:103C900080FE80FE80FE80FE80FE80FE80FE80FE34
:103CA00080FE80FE80FE80FE80FE80FE80FE80FE24
:103CB00080FE80FE80FE80FE80FE80FE80FE80FE14
:103CC00080FE80FE80FE80FE80FE80FE80FE80FE04
:103CD00080FE80FE80FE80FE80FE80FE80FE80FEF4
:103CE00080FE80FE80FE80FE80FE80FE80FE80FEE4
:103CF00080FE80FE80FE80FE80FE80FE80FE80FED4
:103D000080FE41EEA9190901090109010901090112
:103D10000901090109010901090109010901090153
:103D2000090109010901092AC5A460F680FE80FE87
:103D300080FE80FE80FE80FE80FE80FE80FE80FE93
:103D400080FE80FE80FE80FE80FE80FE80FE80FE83
:103D500080FE80FE80FE80FE80FE80FE80FE80FE73
:103D600080FE80FE80FE80FE80FE80FE80FE80FE63
:103D700080FE80FE80FE80FE80FE80FE80FE80FE53
:103D800080FE80FE80FE80FE80FE80FE80FE80FE43
:103D900080FE80FE80FE80FE80FE80FE80FE80FE33
:103DA00080FE80FE80FE80FE80FE80FE80FE80FE23
:103DB00080FE80FE80FE80FE80FE80FE80FE80FE13
:103DC00080FE80FE80FE80FE80FE80FE80FE80FE03
:103DD00080FE80FE80FE80FE80FE80FE80FE80FEF3
:103DE00080FE80FE80FE80FE80FE80FE80FE80FEE3
:103DF00080FE80FE80FE80FE80FE80FE80FE80FED3
:103E000080FE80FE80FE80FE80FE80FE80FE80FEC2
:103E100080FE80FE80FE80FE80FE80FE80FE80FEB2
:103E200080FE80FE80FE80FE80FE80FE80FE80FEA2
:103E300080FE80FE80FE80FE80FE80FE80FE80FE92
:103E400080FE80FE80FE80FE80FE80FE80FE80FE82
:103E500080FE80FE80FEA5A4090109010901090177
:103E60000901090109010901090109010901090102
:103E70000901090109014909258C60F680FE80FECF
:103E800080FE80FE80FE80FE80FE80FE80FE80FE42
:103E900080FE80FE80FE80FE80FE80FE80FE80FE32
:103EA00080FE80FE80FE80FE80FE80FE80FE80FE22
:103EB00080FE80FE80FE80FE80FE80FE80FE80FE12
:103EC00080FE80FE80FE80FE80FE80FE80FE80FE02
:103ED00080FE80FE80FE80FE80FE80FE80FE80FEF2
:103EE00080FE80FE80FE80FE80FE80FE80FE80FEE2
:103EF00080FE80FE80FE80FE80FE80FE80FE80FED2
:103F000080FE80FE80FE80FE80FE80FE80FE80FEC1
:103F100080FE80FE80FE80FE80FE80FE80FE80FEB1
:103F200080FE80FE80FE80FE80FE80FE80FE80FEA1
:103F300080FE80FE80FE80FE80FE80FE80FE80FE91
:103F400080FE80FE80FE80FE80FE80FE80FE80FE81
:103F500080FE80FE80FE80FE80FE80FE80FE80FE71
:103F600080FE80FE80FE80FE80FE80FE80FE80FE61
:103F700080FE80FE80FE80FE80FE80FE80FE80FE51
:103F800080FE80FE80FE80FE80FE80FE80FE80FE41
:103F900080FE80FE80FE80FE80FE80FE80FE80FE31
:103FA00080FE80FE80FE80FE80FE693209010901EC
:103FB00009010901090109010901090109010901B1
:103FC0000901090109010901EA2183CD80FE80FE72
:103FD00080FE80FE80FE80FE80FE80FE80FE80FEF1
:103FE00080FE80FE80FE80FE80FE80FE80FE80FEE1
:103FF00080FE80FE80FE80FE80FE80FE80FE80FED1
:1040000080FE80FE80FE80FE80FE80FE80FE80FEC0
:1040100080FE80FE80FE80FE80FE80FE80FE80FEB0
:1040200080FE80FE80FE80FE80FE80FE80FE80FEA0
:1040300080FE80FE80FE80FE80FE80FE80FE80FE90
:1040400080FE80FE80FE80FE80FE80FE80FE80FE80
:1040500080FE80FE80FE80FE80FE80FE80FE80FE70
:1040600080FE80FE80FE80FE80FE80FE80FE80FE60
:1040700080FE80FE80FE80FE80FE80FE80FE80FE50
:1040800080FE80FE80FE80FE80FE80FE80FE80FE40
:1040900080FE80FE80FE80FE80FE80FE80FE80FE30
:1040A00080FE80FE80FE80FE80FE80FE80FE80FE20
:1040B00080FE80FE80FE80FE80FE80FE80FE80FE10
:1040C00080FE80FE80FE80FE80FE80FE80FE80FE00
:1040D00080FE80FE80FE80FE80FE80FE80FE80FEF0
:1040E00080FE80FE80FE80FE80FE80FE80FE80FEE0
:1040F00080FE80FE80FE80FE80FE80FE83CD090172
:10410000090109010901090109010901090109015F
:1041100009010901090109010901072A01E680FED7
:1041200080FE80FE80FE80FE80FE80FE80FE80FE9F
:1041300080FE80FE80FE80FE80FE80FE80FE80FE8F
:1041400080FE80FE80FE80FE80FE80FE80FE80FE7F
:1041500080FE80FE80FE80FE80FE80FE80FE80FE6F
:1041600080FE80FE80FE80FE80FE80FE80FE80FE5F
:1041700080FE80FE80FE80FE80FE80FE80FE80FE4F
:1041800080FE80FE80FE80FE80FE80FE80FE80FE3F
:1041900080FE80FE80FE80FE80FE80FE80FE80FE2F
:1041A00080FE80FE80FE80FE80FE80FE80FE80FE1F
:1041B00080FE80FE80FE80FE80FE80FE80FE80FE0F
:1041C00080FE80FE80FE80FE80FE80FE80FE80FEFF
:1041D00080FE80FE80FE80FE80FE80FE80FE80FEEF
:1041E00080FE80FE80FE80FE80FE80FE80FE80FEDF
:1041F00080FE80FE80FE80FE80FE80FE80FE80FECF
:1042000080FE80FE80FE80FE80FE80FE80FE80FEBE
:1042100080FE80FE80FE80FE80FE80FE80FE80FEAE
:1042200080FE80FE80FE80FE80FE80FE80FE80FE9E
:1042300080FE80FE80FE80FE80FE80FE80FE80FE8E
:1042400080FE80FE80FE80FE80FE80FE80FE80FE7E
:10425000486309010901090109010901090109016D
:10426000090109010901090109010901C919E2DD71
:1042700080FE80FE80FE80FE80FE80FE80FE80FE4E
:1042800080FE80FE80FE80FE80FE80FE80FE80FE3E
:1042900080FE80FE80FE80FE80FE80FE80FE80FE2E
:1042A00080FE80FE80FE80FE80FE80FE80FE80FE1E
:1042B00080FE80FE80FE80FE80FE80FE80FE80FE0E
:1042C00080FE80FE80FE80FE80FE80FE80FE80FEFE
:1042D00080FE80FE80FE80FE80FE80FE80FE80FEEE
:1042E00080FE80FE80FE80FE80FE80FE80FE80FEDE
:1042F00080FE80FE80FE80FE80FE80FE80FE80FECE
:1043000080FE80FE80FE80FE80FE80FE80FE80FEBD
:1043100080FE80FE80FE80FE80FE80FE80FE80FEAD
:1043200080FE80FE80FE80FE80FE80FE80FE80FE9D
:1043300080FE80FE80FE80FE80FE80FE80FE80FE8D
:1043400080FE80FE80FE80FE80FE80FE80FE80FE7D
:1043500080FE80FE80FE80FE80FE80FE80FE80FE6D
:1043600080FE80FE80FE80FE80FE80FE80FE80FE5D
:1043700080FE80FE80FE80FE80FE80FE80FE80FE4D
:1043800080FE80FE80FE80FE80FE80FE80FE80FE3D
:1043900080FE80FE80FE80FE80FE80FE80FE80FE2D
:1043A00080FE22E6690909010901090109010901E3
:1043B000090109010901090109010901090149016D
:1043C00063C580FE80FE80FE80FE80FE80FE80FE53
:1043D00080FE80FE80FE80FE80FE80FE80FE80FEED
:1043E00080FE80FE80FE80FE80FE80FE80FE80FEDD
:1043F00080FE80FE80FE80FE80FE80FE80FE80FECD
:1044000080FE80FE80FE80FE80FE80FE80FE80FEBC
:1044100080FE80FE80FE80FE80FE80FE80FE80FEAC
:1044200080FE80FE80FE80FE80FE80FE80FE80FE9C
:1044300080FE80FE80FE80FE80FE80FE80FE80FE8C
:1044400080FE80FE80FE80FE80FE80FE80FE80FE7C
:1044500080FE80FE80FE80FE80FE80FE80FE80FE6C
:1044600080FE80FE80FE80FE80FE80FE80FE80FE5C
:1044700080FE80FE80FE80FE80FE80FE80FE80FE4C
:1044800080FE80FE80FE80FE80FE80FE80FE80FE3C
:1044900080FE80FE80FE80FE80FE80FE80FE80FE2C
:1044A00080FE80FE80FE80FE80FE80FE80FE80FE1C
:1044B00080FE80FE80FE80FE80FE80FE80FE80FE0C
:1044C00080FE80FE80FE80FE80FE80FE80FE80FEFC
:1044D00080FE80FE80FE80FE80FE80FE80FE80FEEC
:1044E00080FE80FE80FE80FE80FE80FE80FE80FEDC
:1044F00080FE80FE80FE458C090109010901090149
:10450000090109010901090109010901090109015B
:104510000901E77B80FE80FE80FE80FE80FE80FE3B
:1045200080FE80FE80FE80FE80FE80FE80FE80FE9B
:1045300080FE80FE80FE80FE80FE80FE80FE80FE8B
:1045400080FE80FE80FE80FE80FE80FE80FE80FE7B
:1045500080FE80FE80FE80FE80FE80FE80FE80FE6B
:1045600080FE80FE80FE80FE80FE80FE80FE80FE5B
:1045700080FE80FE80FE80FE80FE80FE80FE80FE4B
:1045800080FE80FE80FE80FE80FE80FE80FE80FE3B
:1045900080FE80FE80FE80FE80FE80FE80FE80FE2B
:1045A00080FE80FE80FE80FE80FE80FE80FE80FE1B
:1045B00080FE80FE80FE80FE80FE80FE80FE80FE0B
:1045C00080FE80FE80FE80FE80FE80FE80FE80FEFB
:1045D00080FE80FE80FE80FE80FE80FE80FE80FEEB
:1045E00080FE80FE80FE80FE80FE80FE80FE80FEDB
:1045F00080FE80FE80FE80FE80FE80FE80FE80FECB
:1046000080FE80FE80FE80FE80FE80FE80FE80FEBA
:1046100080FE80FE80FE80FE80FE80FE80FE80FEAA
:1046200080FE80FE80FE80FE80FE80FE80FE80FE9A
:1046300080FE80FE80FE80FE80FE80FE80FE80FE8A
:1046400080FE80FE80FE80FE60F6082A09010901D6
:10465000090109010901090109010901090109010A
:1046600009010901C82141EE80FE80FE80FE80FE26
:1046700080FE80FE80FE80FE80FE80FE80FE80FE4A
:1046800080FE80FE80FE80FE80FE80FE80FE80FE3A
:1046900080FE80FE80FE80FE80FE80FE80FE80FE2A
:1046A00080FE80FE80FE80FE80FE80FE80FE80FE1A
:1046B00080FE80FE80FE80FE80FE80FE80FE80FE0A
:1046C00080FE80FE80FE80FE80FE80FE80FE80FEFA
:1046D00080FE80FE80FE80FE80FE80FE80FE80FEEA
:1046E00080FE80FE80FE80FE80FE80FE80FE80FEDA
:1046F00080FE80FE80FE80FE80FE80FE80FE80FECA
:1047000080FE80FE80FE80FE80FE80FE80FE80FEB9
:1047100080FE80FE80FE80FE80FE80FE80FE80FEA9
:1047200080FE80FE80FE80FE80FE80FE80FE80FE99
:1047300080FE80FE80FE80FE80FE80FE80FE80FE89
:1047400080FE80FE80FE80FE80FE80FE80FE80FE79
:1047500080FE80FE80FE80FE80FE80FE80FE80FE69
:1047600080FE80FE80FE80FE80FE80FE80FE80FE59
:1047700080FE80FE80FE80FE80FE80FE80FE80FE49
:1047800080FE80FE80FE80FE80FE80FE80FE80FE39
:1047900080FE80FE80FE80FE80FE80FE24B5290122
:1047A00009010901090109010901090109010901B9
:1047B0000901090109010901659480FE80FE80FE5E
:1047C00080FE80FE80FE80FE80FE80FE80FE80FEF9
:1047D00080FE80FE80FE80FE80FE80FE80FE80FEE9
:1047E00080FE80FE80FE80FE80FE80FE80FE80FED9
:1047F00080FE80FE80FE80FE80FE80FE80FE80FEC9
:1048000080FE80FE80FE80FE80FE80FE80FE80FEB8
:1048100080FE80FE80FE80FE80FE80FE80FE80FEA8
:1048200080FE80FE80FE80FE80FE80FE80FE80FE98
:1048300080FE80FE80FE80FE80FE80FE80FE80FE88
:1048400080FE80FE80FE80FE80FE80FE80FE80FE78
:1048500080FE80FE80FE80FE80FE80FE80FE80FE68
:1048600080FE80FE80FE80FE80FE80FE80FE80FE58
:1048700080FE80FE80FE80FE80FE80FE80FE80FE48
:1048800080FE80FE80FE80FE80FE80FE80FE80FE38
:1048900080FE80FE80FE80FE80FE80FE80FE80FE28
:1048A00080FE80FE80FE80FE80FE80FE80FE80FE18
:1048B00080FE80FE80FE80FE80FE80FE80FE80FE08
:1048C00080FE80FE80FE80FE80FE80FE80FE80FEF8
:1048D00080FE80FE80FE80FE80FE80FE80FE80FEE8
:1048E00080FE80FE80FE80FE80FE80FE80FE80FED8
:1048F000E852090109010901090109010901090138
:1049000009010901090109010901891141EE80FE2E
:1049100080FE80FE80FE80FE80FE80FE80FE80FEA7
:1049200080FE80FE80FE80FE80FE80FE80FE80FE97
:1049300080FE80FE80FE80FE80FE80FE80FE80FE87
:1049400080FE80FE80FE80FE80FE80FE80FE80FE77
:1049500080FE80FE80FE80FE80FE80FE80FE80FE67
:1049600080FE80FE80FE80FE80FE80FE80FE80FE57
:1049700080FE80FE80FE80FE80FE80FE80FE80FE47
:1049800080FE80FE80FE80FE80FE80FE80FE80FE37
:1049900080FE80FE80FE80FE80FE80FE80FE80FE27
:1049A00080FE80FE80FE80FE80FE80FE80FE80FE17
:1049B00080FE80FE80FE80FE80FE80FE80FE80FE07
:1049C00080FE80FE80FE80FE80FE80FE80FE80FEF7
:1049D00080FE80FE80FE80FE80FE80FE80FE80FEE7
:1049E00080FE80FE80FE80FE80FE80FE80FE80FED7
:1049F00080FE80FE80FE80FE80FE80FE80FE80FEC7
:104A000080FE80FE80FE80FE80FE80FE80FE80FEB6
:104A100080FE80FE80FE80FE80FE80FE80FE80FEA6
:104A200080FE80FE80FE80FE80FE80FE80FE80FE96
:104A300080FE80FE80FE80FE80FE80FE80FE80FE86
:104A400080FEE2DD490109010901090109010901AD
:104A50000901090109010901090109010901485B6D
:104A600080FE80FE80FE80FE80FE80FE80FE80FE56
:104A700080FE80FE80FE80FE80FE80FE80FE80FE46
:104A800080FE80FE80FE80FE80FE80FE80FE80FE36
:104A900080FE80FE80FE80FE80FE80FE80FE80FE26
:104AA00080FE80FE80FE80FE80FE80FE80FE80FE16
:104AB00080FE80FE80FE80FE80FE80FE80FE80FE06
:104AC00080FE80FE80FE80FE80FE80FE80FE80FEF6
:104AD00080FE80FE80FE80FE80FE80FE80FE80FEE6
:104AE00080FE80FE80FE80FE80FE80FE80FE80FED6
:104AF00080FE80FE80FE80FE80FE80FE80FE80FEC6
:104B000080FE80FE80FE80FE80FE80FE80FE80FEB5
:104B100080FE80FE80FE80FE80FE80FE80FE80FEA5
:104B200080FE80FE80FE80FE80FE80FE80FE80FE95
:104B300080FE80FE80FE80FE80FE80FE80FE80FE85
:104B400080FE80FE80FE80FE80FE80FE80FE80FE75
:104B500080FE80FE80FE80FE80FE80FE80FE80FE65
:104B600080FE80FE80FE80FE80FE80FE80FE80FE55
:104B700080FE80FE80FE80FE80FE80FE80FE80FE45
:104B800080FE80FE80FE80FE80FE80FE80FE80FE35
:104B900080FE80FE80FEC67B090109010901090132
:104BA00009010901090109010901090109010901B5
:104BB0000901C5AC80FE80FE80FE80FE80FE80FE86
:104BC00080FE80FE80FE80FE80FE80FE80FE80FEF5
:104BD00080FE80FE80FE80FE80FE80FE80FE80FEE5
:104BE00080FE80FE80FE80FE80FE80FE80FE80FED5
:104BF00080FE80FE80FE80FE80FE80FE80FE80FEC5
:104C000080FE80FE80FE80FE80FE80FE80FE80FEB4
:104C100080FE80FE80FE80FE80FE80FE80FE80FEA4
:104C200080FE80FE80FE80FE80FE80FE80FE80FE94
:104C300080FE80FE80FE80FE80FE80FE80FE80FE84
:104C400080FE80FE80FE80FE80FE80FE80FE80FE74
:104C500080FE80FE80FE80FE80FE80FE80FE80FE64
:104C600080FE80FE80FE80FE80FE80FE80FE80FE54
:104C700080FE80FE80FE80FE80FE80FE80FE80FE44
:104C800080FE80FE80FE80FE80FE80FE80FE80FE34
:104C900080FE80FE80FE80FE80FE80FE80FE80FE24
:104CA00080FE80FE80FE80FE80FE80FE80FE80FE14
:104CB00080FE80FE80FE80FE80FE80FE80FE80FE04
:104CC00080FE80FE80FE80FE80FE80FE80FE80FEF4
:104CD00080FE80FE80FE80FE80FE80FE80FE80FEE4
:104CE00080FE80FE80FE80FE40F6A91909010901C0
:104CF0000901090109010901090109010901090164
:104D000009010901090122E680FE80FE80FE80FE85
:104D100080FE80FE80FE80FE80FE80FE80FE80FEA3
:104D200080FE80FE80FE80FE81F663F663F663F609
:104D300063F663F663F663F663F663F663F663F6AB
:104D400063F663F663F663F663F663F663F663F69B
:104D500063F663F663F663F663F663F663F663F68B
:104D600063F663F663F663F663F663F663F663F67B
:104D700063F663F663F663F663F663F663F663F66B
:104D800063F663F663F663F663F663F663F663F65B
:104D900061F680FE80FE80FE80FE80FE80FE80FE4A
:104DA00080FE80FE80FE80FE80FE80FE80FE80FE13
:104DB00080FE80FE80FE62F663F663F663F663F6BD
:104DC00063F663F663F663F663F663F663F663F61B
:104DD00063F663F663F663F663F661F680FE80FEC3
:104DE00080FE80FE80FE80FE80FE80FE80FE80FED3
:104DF00080FE80FE80FE80FE80FE80FE80FE80FEC3
:104E000080FE80FE80FE80FE80FE80FE80FE80FEB2
:104E100080FE80FE80FE80FE80FE80FE80FE80FEA2
:104E200080FE80FE80FE80FE80FE80FE80FE80FE92
:104E300080FE80FE80FE80FE80FE80FEC5A409010B
:104E40000901090109010901090109010901090112
:104E50000901090109010901CB1980FE80FE80FECC
:104E600080FE80FE80FE80FE80FE80FE80FE80FE52
:104E700080FE80FE80FE80FEE1DD275BA9198A119D
:104E80008A118A118A118A118A118A118A118A114A
:104E90008A118A118A118A118A118A118A118A113A
:104EA0008A118A118A118A118A118A118A118A112A
:104EB0008A118A118A118A118A118A118A118A111A
:104EC0008A118A118A118A118A118A118A118A110A
:104ED0008A118A118A118A118A118A118A118A11FA
:104EE0008A118A11A911E5AC80FE80FE80FE80FE49
:104EF00080FE80FE80FE80FE80FE80FE80FE80FEC2
:104F000080FE80FE80F6859C082A8A118A118A110B
:104F10008A118A118A118A118A118A118A118A11B9
:104F20008A118A118A118A118A118A118A11A91982
:104F300062C580FE80FE80FE80FE80FE80FE80FED8
:104F400080FE80FE80FE80FE80FE80FE80FE80FE71
:104F500080FE80FE80FE80FE80FE80FE80FE80FE61
:104F600080FE80FE80FE80FE80FE80FE80FE80FE51
:104F700080FE80FE80FE80FE80FE80FE80FE80FE41
:104F800080FE80FE80FE80FE80FE80FE80FE80FE31
:104F9000893A090109010901090109010901090108
:104FA000090109010901090109010901673A80FEA6
:104FB00080FE80FE80FE80FE80FE80FE80FE80FE01
:104FC00080FE80FE80FE80FE80FE01E6CA19090197
:104FD0000901090109010901090109010901090181
:104FE0000901090109010901090109010901090171
:104FF0000901090109010901090109010901090161
:105000000901090109010901090109010901090150
:105010000901090109010901090109010901090140
:105020000901090109010901090109010901090130
:1050300009010901090109010901078480FE80FEB7
:1050400080FE80FE80FE80FE80FE80FE80FE80FE70
:1050500080FE80FE80FE80FEA4A4290109010901D2
:1050600009010901090109010901090109010901F0
:1050700009010901090109010901090109010901E0
:1050800009010901A4A480FE80FE80FE80FE80FE4E
:1050900080FE80FE80FE80FE80FE80FE80FE80FE20
:1050A00080FE80FE80FE80FE80FE80FE80FE80FE10
:1050B00080FE80FE80FE80FE80FE80FE80FE80FE00
:1050C00080FE80FE80FE80FE80FE80FE80FE80FEF0
:1050D00080FE80FE80FE80FE80FE80FE80FE80FEE0
:1050E00080FEA3CD29010901090109010901090176
:1050F0000901090109010901090109010901090160
:10510000E95280FE80FE80FE80FE80FE80FE80FEF2
:1051100080FE80FE80FE80FE80FE80FE80FEA67304
:10512000090109010901090109010901090109012F
:10513000090109010901090109010901090109011F
:10514000090109010901090109010901090109010F
:1051500009010901090109010901090109010901FF
:1051600009010901090109010901090109010901EF
:1051700009010901090109010901090109010901DF
:105180000901090109010901090109012901E2DDFA
:1051900080FE80FE80FE80FE80FE80FE80FE80FE1F
:1051A00080FE80FE80FE80FE80FE80F6092A0901D6
:1051B000090109010901090109010901090109019F
:1051C000090109010901090109010901090109018F
:1051D000090109010901891141EE80FE80FE80FE6E
:1051E00080FE80FE80FE80FE80FE80FE80FE80FECF
:1051F00080FE80FE80FE80FE80FE80FE80FE80FEBF
:1052000080FE80FE80FE80FE80FE80FE80FE80FEAE
:1052100080FE80FE80FE80FE80FE80FE80FE80FE9E
:1052200080FE80FE80FE80FE80FE80FE80FE80FE8E
:1052300080FE80FE80FE676B0901090109010901FA
:10524000090109010901090109010901090109010E
:10525000090109012A5380FE80FE80FE80FE80FE47
:1052600080FE80FE80FE80FE80FE80FE80FE80FE4E
:1052700080FECB4209010901090109010901090167
:1052800009010901090109010901090109010901CE
:1052900009010901090109010901090109010901BE
:1052A00009010901090109010901090109010901AE
:1052B000090109010901090109010901090109019E
:1052C000090109010901090109010901090109018E
:1052D000090109010901090109010901090109017E
:1052E000E84A80FE80FE80FE80FE80FE80FE80FE1A
:1052F00080FE80FE80FE80FE80FE80FE80FE44BD3B
:10530000090109010901090109010901090109014D
:10531000090109010901090109010901090109013D
:1053200009010901090109010901876B80FE80FE5D
:1053300080FE80FE80FE80FE80FE80FE80FE80FE7D
:1053400080FE80FE80FE80FE80FE80FE80FE80FE6D
:1053500080FE80FE80FE80FE80FE80FE80FE80FE5D
:1053600080FE80FE80FE80FE80FE80FE80FE80FE4D
:1053700080FE80FE80FE80FE80FE80FE80FE80FE3D
:1053800080FE80FE80FE80FE21EE69110901090188
:1053900009010901090109010901090109010901BD
:1053A0000901090109010901095380FE80FE80FEFF
:1053B00080FE80FE80FE80FE80FE80FE80FE80FEFD
:1053C00080FE80FE80FEA673090109010901090122
:1053D000090109010901090109010901090109017D
:1053E000090109010901090109010901090109016D
:1053F000090109010901090109010901090109015D
:10540000090109010901090109010901090109014C
:10541000090109010901090109010901090109013C
:10542000090109010901090109010901090109012C
:105430000901290104B580FE80FE80FE80FE80FE09
:1054400080FE80FE80FE80FE80FE80FE80FE80FE6C
:1054500080FE085309010901090109010901090137
:1054600009010901090109010901090109010901EC
:105470000901090109010901090109012901A2D54F
:1054800080FE80FE80FE80FE80FE80FE80FE80FE2C
:1054900080FE80FE80FE80FE80FE80FE80FE80FE1C
:1054A00080FE80FE80FE80FE80FE80FE80FE80FE0C
:1054B00080FE80FE80FE80FE80FE80FE80FE80FEFC
:1054C00080FE80FE80FE80FE80FE80FE80FE80FEEC
:1054D00080FE80FE80FE80FE80FE80FE46940901F4
:1054E000090109010901090109010901090109016C
:1054F000090109010901090109010901873A80FE31
:1055000080FE80FE80FE80FE80FE80FE80FE80FEAB
:1055100080FE80FE80FE80FE80FE02E6A919090161
:10552000090109010901090109010901090109012B
:10553000090109010901090109010901090109011B
:10554000090109010901090109010901090109010B
:1055500009010901090109010901090109010901FB
:1055600009010901090109010901090109010901EB
:1055700009010901090109010901090109010901DB
:10558000090109010901092A60F680FE80FE80FEFA
:1055900080FE80FE80FE80FE80FE80FE80FE80FE1B
:1055A00080FE80FE02E6490909010901090109019D
:1055B000090109010901090109010901090109019B
:1055C000090109010901090109010901090109018B
:1055D000A84280F680FE80FE80FE80FE80FE80FE77
:1055E00080FE80FE80FE80FE80FE80FE80FE80FECB
:1055F00080FE80FE80FE80FE80FE80FE80FE80FEBB
:1056000080FE80FE80FE80FE80FE80FE80FE80FEAA
:1056100080FE80FE80FE80FE80FE80FE80FE80FE9A
:1056200080FE80FE80FE80FE80FE80FE80FE60F6B2
:10563000292A0901090109010901090109010901D1
:10564000090109010901090109010901090109010A
:10565000EA2180FE80FE80FE80FE80FE80FE80FECD
:1056600080FE80FE80FE80FE80FE80FE80FE80FE4A
:1056700082CDC919090109010901090109010901BD
:1056800009010901090109010901090109010901CA
:1056900009010901090109010901090109010901BA
:1056A00009010901090109010901090109010901AA
:1056B000090109010901090109010901090109019A
:1056C000090109010901090109010901090109018A
:1056D00009010901090109010901268C80FE80FEEA
:1056E00080FE80FE80FE80FE80FE80FE80FE80FECA
:1056F00080FE80FE80FE80FEE67B09010901090133
:105700000901090109010901090109010901090149
:105710000901090109010901090109010901090139
:1057200009010901E5AC80FE80FE80FE80FE80FE5E
:1057300080FE80FE80FE80FE80FE80FE80FE80FE79
:1057400080FE80FE80FE80FE80FE80FE80FE80FE69
:1057500080FE80FE80FE80FE80FE80FE80FE80FE59
:1057600080FE80FE80FE80FE80FE80FE80FE80FE49
:1057700080FE80FE80FE80FE80FE80FE80FE80FE39
:1057800080FE23BD2901090109010901090109015F
:1057900009010901090109010901090109010901B9
:1057A00009010901290122E680FE80FE80FE80FEBB
:1057B00080FE80FE80FE80FE80FE80FE80FE80FEF9
:1057C00080FE80FE80FEC3D5E9210901090109019F
:1057D0000901090109010901090109010901090179
:1057E0000901090109010901090109010901090169
:1057F0000901090109010901090109010901090159
:105800000901090109010901090109010901090148
:105810000901090109010901090109010901090138
:10582000090109010901090109010901690921E6C3
:1058300080FE80FE80FE80FE80FE80FE80FE80FE78
:1058400080FE80FE80FE80FE80FE61F6C921090197
:1058500009010901090109010901090109010901F8
:1058600009010901090109010901090109010901E8
:10587000090109010901A91961F680FE80FE80FE77
:1058800080FE80FE80FE80FE80FE80FE80FE80FE28
:1058900080FE80FE80FE80FE80FE80FE80FE80FE18
:1058A00080FE80FE80FE80FE80FE80FE80FE80FE08
:1058B00080FE80FE80FE80FE80FE80FE80FE80FEF8
:1058C00080FE80FE80FE80FE80FE80FE80FE80FEE8
:1058D00080FE80FE80FE07530901090109010901CC
:1058E0000901090109010901090109010901090168
:1058F00009010901090109010901C5A480FE80FE11
:1059000080FE80FE80FE80FE80FE80FE80FE80FEA7
:1059100080FE80FE80FE80FE80FE80FE01E6282A5A
:105920000901090109010901090109010901090127
:105930000901090109010901090109010901090117
:105940000901090109010901090109010901090107
:1059500009010901090109010901090109010901F7
:1059600009010901090109010901090109010901E7
:1059700009010901090109010901090109010901D7
:10598000475B80FE80FE80FE80FE80FE80FE80FE03
:1059900080FE80FE80FE80FE80FE80FE80FEE4AC05
:1059A00009010901090109010901090109010901A7
:1059B0000901090109010901090109010901090197
:1059C00009010901090109010901E67B80FE80FE48
:1059D00080FE80FE80FE80FE80FE80FE80FE80FED7
:1059E00080FE80FE80FE80FE80FE80FE80FE80FEC7
:1059F00080FE80FE80FE80FE80FE80FE80FE80FEB7
:105A000080FE80FE80FE80FE80FE80FE80FE80FEA6
:105A100080FE80FE80FE80FE80FE80FE80FE80FE96
:105A200080FE80FE80FE80FE02DE49090901090138
:105A30000901090109010901090109010901090116
:105A40000901090109010901090109010901476366
:105A500080FE80FE80FE80FE80FE80FE80FE80FE56
:105A600080FE80FE80FE80FE80FE80FE80FE80FE46
:105A700080FE21E6693A09010901090109010901CC
:105A800009010901090109010901090109010901C6
:105A900009010901090109010901090109010901B6
:105AA00009010901090109010901090109010901A6
:105AB0000901090109010901090109010901090196
:105AC0000901090109010901090109010901090186
:105AD0000901290163C580FE80FE80FE80FE80FEF4
:105AE00080FE80FE80FE80FE80FE80FE80FE80FEC6
:105AF00080F6A8420901090109010901090109010A
:105B00000901090109010901090109010901090145
:105B10000901090109010901090109014909E2DD38
:105B200080FE80FE80FE80FE80FE80FE80FE80FE85
:105B300080FE80FE80FE80FE80FE80FE80FE80FE75
:105B400080FE80FE80FE80FE80FE80FE80FE80FE65
:105B500080FE80FE80FE80FE80FE80FE80FE80FE55
:105B600080FE80FE80FE80FE80FE80FE80FE80FE45
:105B700080FE80FE80FE80FE80FE80FEE67B0901C6
:105B800009010901090109010901090109010901C5
:105B900009010901090109010901090109010901B5
:105BA0000901891122E680FE80FE80FE80FE80FED3
:105BB00080FE80FE80FE80FE80FE80FE80FE80FEF5
:105BC00080FE80FE80FE80FE41EEA84209010901B0
:105BD0000901090109010901090109010901090175
:105BE0000901090109010901090109010901090165
:105BF0000901090109010901090109010901090155
:105C00000901090109010901090109010901090144
:105C10000901090109010901090109010901090134
:105C2000090109010901493280FE80FE80FE80FEE3
:105C300080FE80FE80FE80FE80FE80FE80FE80FE74
:105C400080FE80FEC2D5290109010901090109016F
:105C500009010901090109010901090109010901F4
:105C600009010901090109010901090109010901E4
:105C7000075380FE80FE80FE80FE80FE80FE80FE58
:105C800080FE80FE80FE80FE80FE80FE80FE80FE24
:105C900080FE80FE80FE80FE80FE80FE80FE80FE14
:105CA00080FE80FE80FE80FE80FE80FE80FE80FE04
:105CB00080FE80FE80FE80FE80FE80FE80FE80FEF4
:105CC00080FE80FE80FE80FE80FE80FE80FE60F60C
:105CD000C921090109010901090109010901090194
:105CE0000901090109010901090109010901090164
:105CF0000901090109010901459480FE80FE80FE29
:105D000080FE80FE80FE80FE80FE80FE80FE80FEA3
:105D100080FE80FE80FE80FE80FE80FE80FE60F6BB
:105D200007530901090109010901090109010901D3
:105D30000901090109010901090109010901090113
:105D40000901090109010901090109010901090103
:105D500009010901090109010901090109010901F3
:105D600009010901090109010901090109010901E3
:105D700009010901090109010901859C80FE80FED4
:105D800080FE80FE80FE80FE80FE80FE80FE80FE23
:105D900080FE80FE80FE80FEA673090109010901D4
:105DA00009010901090109010901090109010901A3
:105DB0000901090109010901090109010901090193
:105DC0000901090144BD80FE80FE80FE80FE80FE48
:105DD00080FE80FE80FE80FE80FE80FE80FE80FED3
:105DE00080FE80FE80FE80FE80FE80FE80FE80FEC3
:105DF00080FE80FE80FE80FE80FE80FE80FE80FEB3
:105E000080FE80FE80FE80FE80FE80FE80FE80FEA2
:105E100080FE80FE80FE80FE80FE80FE80FE80FE92
:105E200080FEE5AC09010901090109010901090127
:105E30000901090109010901090109010901090112
:105E4000090109010901090109010901A91921E64D
:105E500080FE80FE80FE80FE80FE80FE80FE80FE52
:105E600080FE80FE80FE80FE80FE80FE80FE80FE42
:105E700080FE80FE60F648630901090109010901FD
:105E800009010901090109010901090109010901C2
:105E900009010901090109010901090109010901B2
:105EA00009010901090109010901090109010901A2
:105EB0000901090109010901090109010901090192
:105EC000090109010901090109010901891141EECD
:105ED00080FE80FE80FE80FE80FE80FE80FE80FED2
:105EE00080FE80FE80FE80FE80FE41EE8911090169
:105EF0000901090109010901090109010901090152
:105F00000901090109010901090109010901090141
:105F1000090109010901292A60F680FE80FE80FE40
:105F200080FE80FE80FE80FE80FE80FE80FE80FE81
:105F300080FE80FE80FE80FE80FE80FE80FE80FE71
:105F400080FE80FE80FE80FE80FE80FE80FE80FE61
:105F500080FE80FE80FE80FE80FE80FE80FE80FE51
:105F600080FE80FE80FE80FE80FE80FE80FE80FE41
:105F700080FE80FE80FEA842090109010901090195
:105F800009010901090109010901090109010901C1
:105F900009010901090109010901090109010901B1
:105FA0000901866B80FE80FE80FE80FE80FE80FE02
:105FB00080FE80FE80FE80FE80FE80FE80FE80FEF1
:105FC00080FE80FE80FE80FE80FE60F6C8730901C0
:105FD0000901090109010901090109010901090171
:105FE0000901090109010901090109010901090161
:105FF0000901090109010901090109010901090151
:106000000901090109010901090109010901090140
:106010000901090109010901090109010901090130
:10602000A67380FE80FE80FE80FE80FE80FE80FEE5
:1060300080FE80FE80FE80FE80FE80FE80FE859CCD
:106040000901090109010901090109010901090100
:1060500009010901090109010901090109010901F0
:1060600009010901090109010901459480FE80FE29
:1060700080FE80FE80FE80FE80FE80FE80FE80FE30
:1060800080FE80FE80FE80FE80FE80FE80FE80FE20
:1060900080FE80FE80FE80FE80FE80FE80FE80FE10
:1060A00080FE80FE80FE80FE80FE80FE80FE80FE00
:1060B00080FE80FE80FE80FE80FE80FE80FE80FEF0
:1060C00080FE80FE80FE80FEC3D529010901090102
:1060D0000901090109010901090109010901090170
:1060E0000901090109010901090109010901090160
:1060F0000901090109012901C6A480FE80FE80FE74
:1061000080FE80FE80FE80FE80FE80FE80FE80FE9F
:1061100080FE80FE80FE80FE80FE80FE80FE80FE8F
:1061200080FE05842901090109010901090109010C
:10613000090109010901090109010901090109010F
:1061400009010901090109010901090109010901FF
:1061500009010901090109010901090109010901EF
:1061600009010901090109010901090109010901DF
:1061700009012901C3D580FE80FE80FE80FE80FEDD
:1061800080FE80FE80FE80FE80FE80FE80FE80FE1F
:1061900080FE4932090109010901090109010901CA
:1061A000090109010901090109010901090109019F
:1061B000090109010901090109010901690921EE22
:1061C00080FE80FE80FE80FE80FE80FE80FE80FEDF
:1061D00080FE80FE80FE80FE80FE80FE80FE80FECF
:1061E00080FE80FE80FE80FE80FE80FE80FE80FEBF
:1061F00080FE80FE80FE80FE80FE80FE80FE80FEAF
:1062000080FE80FE80FE80FE80FE80FE80FE80FE9E
:1062100080FE80FE80FE80FE80FE80FE876B09018E
:10622000090109010901090109010901090109011E
:10623000090109010901090109010901090109010E
:10624000090109010901090109010901690942C599
:1062500080FE80FE80FE80FE80FE80FE80FE80FE4E
:1062600080FE80FE80FE80FE80FE80FE80FE80FE3E
:1062700080FE80FE80FE80FE46942901090109010E
:1062800009010901090109010901090109010901BE
:1062900009010901090109010901090109010901AE
:1062A000090109010901090109010901090109019E
:1062B000090109010901090109010901090109018E
:1062C000090109010901A94280FE80FE80FE80FECD
:1062D00080FE80FE80FE80FE80FE80FE80FE80FECE
:1062E00080FE80FE64C50901090109010901090157
:1062F000090109010901090109010901090109014E
:10630000090109010901090109010901090109013D
:10631000676380FE80FE80FE80FE80FE80FE80FE41
:1063200080FE80FE80FE80FE80FE80FE80FE80FE7D
:1063300080FE80FE80FE80FE80FE80FE80FE80FE6D
:1063400080FE80FE80FE80FE80FE80FE80FE80FE5D
:1063500080FE80FE80FE80FE80FE80FE80FE80FE4D
:1063600080FE80FE80FE80FE80FE80FE80FE41EE8C
:10637000891109010901090109010901090109013D
:1063800009010901090109010901090109010901BD
:1063900009010901090109010901090109010901AD
:1063A0000901691142C580FE80FE80FE80FE80FEEC
:1063B00080FE80FE80FE80FE80FE80FE80FE80FEED
:1063C00080FE80FE80FE80FE80FE80FE80FEC6A4F1
:1063D0004909090109010901090109010901090125
:1063E000090109010901090109010901090109015D
:1063F000090109010901090109010901090109014D
:10640000090109010901090109010901090109013C
:1064100009010901090109010901E4AC80FE80FEBE
:1064200080FE80FE80FE80FE80FE80FE80FE80FE7C
:1064300080FE80FE80FE80FE475B090109010901A4
:1064400009010901090109010901090109010901FC
:1064500009010901090109010901090109010901EC
:106460000901290184CD80FE80FE80FE80FE80FE31
:1064700080FE80FE80FE80FE80FE80FE80FE80FE2C
:1064800080FE80FE80FE80FE80FE80FE80FE80FE1C
:1064900080FE80FE80FE80FE80FE80FE80FE80FE0C
:1064A00080FE80FE80FE80FE80FE80FE80FE80FEFC
:1064B00080FE80FE80FE80FE80FE80FE80FE80FEEC
:1064C00080FE669409010901090109010901090118
:1064D000090109010901090109010901090109016C
:1064E000090109010901090109010901090109015C
:1064F0000901090109010901680906AD80FE80FE54
:1065000080FE80FE80FE80FE80FE80FE80FE80FE9B
:1065100080FE80FE80FE80FE80FE80FE80FE80FE8B
:1065200080FE80FE03B5490909010901090109013D
:10653000090109010901090109010901090109010B
:1065400009010901090109010901090109010901FB
:1065500009010901090109010901090109010901EB
:10656000090109010901090109010901E92160F68F
:1065700080FE80FE80FE80FE80FE80FE80FE80FE2B
:1065800080FE80FE80FE80FE80FE02E66909090131
:1065900009010901090109010901090109010901AB
:1065A000090109010901090109010901090109019B
:1065B000090109010901683A80F680FE80FE80FE2B
:1065C00080FE80FE80FE80FE80FE80FE80FE80FEDB
:1065D00080FE80FE80FE80FE80FE80FE80FE80FECB
:1065E00080FE80FE80FE80FE80FE80FE80FE80FEBB
:1065F00080FE80FE80FE80FE80FE80FE80FE80FEAB
:1066000080FE80FE80FE80FE80FE80FE80FE80FE9A
:1066100080FE80FE80FE293209010901090109017D
:10662000090109010901090109010901090109011A
:10663000090109010901090109010901090109010A
:1066400009010901090109010901090109014909B2
:10665000C5A480FE80FE80FE80FE80FE80FE80FE5F
:1066600080FE80FE80FE80FE80FE80FE80FE80FE3A
:1066700080FE80FE80FE80FE80FE24BD891109011F
:1066800009010901090109010901090109010901BA
:1066900009010901090109010901090109010901AA
:1066A000090109010901090109010901090109019A
:1066B000090109010901090109010901090109018A
:1066C000068480FE80FE80FE80FE80FE80FE80FECE
:1066D00080FE80FE80FE80FE80FE80FE80FE258C97
:1066E000090109010901090109010901090109015A
:1066F000090109010901090109010901090109014A
:1067000009010901090109010901A5A480FE80FE12
:1067100080FE80FE80FE80FE80FE80FE80FE80FE89
:1067200080FE80FE80FE80FE80FE80FE80FE80FE79
:1067300080FE80FE80FE80FE80FE80FE80FE80FE69
:1067400080FE80FE80FE80FE80FE80FE80FE80FE59
:1067500080FE80FE80FE80FE80FE80FE80FE80FE49
:1067600080FE80FE80FE80FE43BD290109010901F3
:1067700009010901090109010901090109010901C9
:1067800009010901090109010901090109010901B9
:1067900009010901090109010901090109010901A9
:1067A000090109012901649C80FE80FE80FE80FEB3
:1067B00080FE80FE80FE80FE80FE80FE80FE80FEE9
:1067C00080FE80FE80FE80FE80FE80FE80FE80FED9
:1067D00085CDA8190901090109010901090109016A
:1067E0000901090109010901090109010901090159
:1067F0000901090109010901090109010901090149
:106800000901090109010901090109010901090138
:106810000901490902E680FE80FE80FE80FE80FEBE
:1068200080FE80FE80FE80FE80FE80FE80FE80FE78
:1068300060F6E921090109010901090109010901BC
:1068400009010901090109010901090109010901F8
:10685000090109010901090109010901A91961F6E3
:1068600080FE80FE80FE80FE80FE80FE80FE80FE38
:1068700080FE80FE80FE80FE80FE80FE80FE80FE28
:1068800080FE80FE80FE80FE80FE80FE80FE80FE18
:1068900080FE80FE80FE80FE80FE80FE80FE80FE08
:1068A00080FE80FE80FE80FE80FE80FE80FE80FEF8
:1068B00080FE80FE80FE80FE80FE80FE275B090158
:1068C0000901090109010901090109010901090178
:1068D0000901090109010901090109010901090168
:1068E0000901090109010901090109010901090158
:1068F000090109010901090109012901268C80FE0C
:1069000080FE80FE80FE80FE80FE80FE80FE80FE97
:1069100080FE80FE80FE80FE80FE80FE80FE80FE87
:1069200080FE80FE80FEA1D5C9210901090109016F
:106930000901090109010901090109010901090107
:1069400009010901090109010901090109010901F7
:1069500009010901090109010901090109010901E7
:10696000090109010901085380FE80FE80FE80FEB6
:1069700080FE80FE80FE80FE80FE80FE80FE80FE27
:1069800080FE80FE04B52901090109010901090100
:1069900009010901090109010901090109010901A7
:1069A0000901090109010901090109010901090197
:1069B000C67380FE80FE80FE80FE80FE80FE80FE2C
:1069C00080FE80FE80FE80FE80FE80FE80FE80FED7
:1069D00080FE80FE80FE80FE80FE80FE80FE80FEC7
:1069E00080FE80FE80FE80FE80FE80FE80FE80FEB7
:1069F00080FE80FE80FE80FE80FE80FE80FE80FEA7
:106A000080FE80FE80FE80FE80FE80FE80FE01E62D
:106A100049090901090109010901090109010901DE
:106A20000901090109010901090109010901090116
:106A30000901090109010901090109010901090106
:106A400009010901090109010901090109010901F6
:106A50000901E87B60F680FE80FE80FE80FE80FEFD
:106A600080FE80FE80FE80FE80FE80FE80FE80FE36
:106A700080FE80FE80FE80FE80FE80FEE2DD092A30
:106A800009010901090109010901090109010901B6
:106A900009010901090109010901090109010901A6
:106AA0000901090109010901090109010901090196
:106AB0000901090109010901290144BD80FE80FE87
:106AC00080FE80FE80FE80FE80FE80FE80FE80FED6
:106AD00080FE80FE80FE80FEE84A0901090109016E
:106AE0000901090109010901090109010901090156
:106AF0000901090109010901090109010901090146
:106B000009014901C3D580FE80FE80FE80FE80FE23
:106B100080FE80FE80FE80FE80FE80FE80FE80FE85
:106B200080FE80FE80FE80FE80FE80FE80FE80FE75
:106B300080FE80FE80FE80FE80FE80FE80FE80FE65
:106B400080FE80FE80FE80FE80FE80FE80FE80FE55
:106B500080FE80FE80FE80FE80FE80FE80FE80FE45
:106B600080FE0684090109010901090109010901E1
:106B700009010901090109010901090109010901C5
:106B800009010901090109010901090109010901B5
:106B900009010901090109010901090109010901A5
:106BA0000901090109012901866B60F680FE80FE5A
:106BB00080FE80FE80FE80FE80FE80FE80FE80FEE5
:106BC00080FE80FE80FE80FE80FE80FE80FE80FED5
:106BD00080FE03E6092A09010901090109010901E9
:106BE0000901090109010901090109010901090155
:106BF0000901090109010901090109010901090145
:106C0000090109010901090109010901282A60F6A0
:106C100080FE80FE80FE80FE80FE80FE80FE80FE84
:106C200080FE80FE80FE80FE80FEE2DD49010901DB
:106C30000901090109010901090109010901090104
:106C400009010901090109010901090109010901F4
:106C5000090109010901C94A80FE80FE80FE80FE0B
:106C600080FE80FE80FE80FE80FE80FE80FE80FE34
:106C700080FE80FE80FE80FE80FE80FE80FE80FE24
:106C800080FE80FE80FE80FE80FE80FE80FE80FE14
:106C900080FE80FE80FE80FE80FE80FE80FE80FE04
:106CA00080FE80FE80FE80FE80FE80FE80FE80FEF4
:106CB00080FE80FE61F6E92109010901090109014F
:106CC0000901090109010901090109010901090174
:106CD0000901090109010901090109010901090164
:106CE0000901090109010901090109010901090154
:106CF00009010901090109010901090109014763A4
:106D000061F680FE80FE80FE80FE80FE80FE80FEBA
:106D100080FE80FE80FE80FE80FE80FE80FE80FE83
:106D200080FE80FE80FE80FEC2D589110901090126
:106D30000901090109010901090109010901090103
:106D400009010901090109010901090109010901F3
:106D500009010901090109010901090109010901E3
:106D6000459480FE80FE80FE80FE80FE80FE80FED8
:106D700080FE80FE80FE80FE80FE80FE80FEC67B60
:106D800009010901090109010901090109010901B3
:106D900009010901090109010901090109010901A3
:106DA0000901090109010901090104B580FE80FEFC
:106DB00080FE80FE80FE80FE80FE80FE80FE80FEE3
:106DC00080FE80FE80FE80FE80FE80FE80FE80FED3
:106DD00080FE80FE80FE80FE80FE80FE80FE80FEC3
:106DE00080FE80FE80FE80FE80FE80FE80FE80FEB3
:106DF00080FE80FE80FE80FE80FE80FE80FE80FEA3
:106E000080FE80FE80FE80FEE4AC090109010901DC
:106E10000901090109010901090109010901090122
:106E20000901090109010901090109010901090112
:106E30000901090109010901090109010901090102
:106E400009010901090109010901090109010901F2
:106E500009010901E94A41EE80FE80FE80FE80FEC4
:106E600080FE80FE80FE80FE80FE80FE80FE80FE32
:106E700080FE80FE80FE80FE80FE80FE80FE04B5E7
:106E80002901090109010901090109010901090192
:106E900009010901090109010901090109010901A2
:106EA0000901090109010901090109010901090192
:106EB0000901691122E680FE80FE80FE80FE80FED0
:106EC00080FE80FE80FE80FE80FE80FE80FE80FED2
:106ED00040F6A9190901090109010901090109017E
:106EE0000901090109010901090109010901090152
:106EF000090109010901090109010901E92160F6F6
:106F000080FE80FE80FE80FE80FE80FE80FE80FE91
:106F100080FE80FE80FE80FE80FE80FE80FE80FE81
:106F200080FE80FE80FE80FE80FE80FE80FE80FE71
:106F300080FE80FE80FE80FE80FE80FE80FE80FE61
:106F400080FE80FE80FE80FE80FE80FE80FE80FE51
:106F500080FE80FE80FE80FE80FE80FEC84A090121
:106F600009010901090109010901090109010901D1
:106F700009010901090109010901090109010901C1
:106F800009010901090109010901090109010901B1
:106F900009010901090109010901090109010901A1
:106FA00009010901090109010901884240EE80FE39
:106FB00080FE80FE80FE80FE80FE80FE80FE80FEE1
:106FC00080FE80FE80FE80FE80FE80FE80FE80FED1
:106FD00080FE80FE485B09010901090109010901E0
:106FE0000901090109010901090109010901090151
:106FF0000901090109010901090109010901090141
:10700000090109010901686380FE80FE80FE80FE9F
:1070100080FE80FE80FE80FE80FE80FE80FE80FE80
:1070200080FE80FEC5A409010901090109010901C9
:107030000901090109010901090109010901090100
:1070400009010901090109010901090109010901F0
:10705000068480FE80FE80FE80FE80FE80FE80FE34
:1070600080FE80FE80FE80FE80FE80FE80FE80FE30
:1070700080FE80FE80FE80FE80FE80FE80FE80FE20
:1070800080FE80FE80FE80FE80FE80FE80FE80FE10
:1070900080FE80FE80FE80FE80FE80FE80FE80FE00
:1070A00080FE80FE80FE80FE80FE80FE80FEC3D5D6
:1070B0002901090109010901090109010901090160
:1070C0000901090109010901090109010901090170
:1070D0000901090109010901090109010901090160
:1070E0000901090109010901090109010901090150
:1070F0000901090109010901090109010901090140
:10710000673A21E680FE80FE80FE80FE80FE80FEE3
:1071100080FE80FE80FE80FE80FE80FE80FE80FE7F
:1071200080FE80FE80FE80FE01E6691109010901F2
:1071300009010901090109010901090109010901FF
:1071400009010901090109010901090109010901EF
:1071500009010901090109012901A3CD80FE80FE71
:1071600080FE80FE80FE80FE80FE80FE80FE80FE2F
:1071700080FE80FE80FE80FE883A09010901090137
:1071800009010901090109010901090109010901AF
:10719000090109010901090109010901090109019F
:1071A0000901490921E680FE80FE80FE80FE80FE06
:1071B00080FE80FE80FE80FE80FE80FE80FE80FEDF
:1071C00080FE80FE80FE80FE80FE80FE80FE80FECF
:1071D00080FE80FE80FE80FE80FE80FE80FE80FEBF
:1071E00080FE80FE80FE80FE80FE80FE80FE80FEAF
:1071F00080FE80FE80FE80FE80FE80FE80FE80FE9F
:1072000080FEA673090109010901090109010901AB
:10721000090109010901090109010901090109011E
:10722000090109010901090109010901090109010E
:1072300009010901090109010901090109010901FE
:1072400009010901090109010901090109010901EE
:107250000901090109012A2AE2DD80FE80FE80FE83
:1072600080FE80FE80FE80FE80FE80FE80FE80FE2E
:1072700080FE80FE80FE80FE80FE80FE80FEE77B3A
:1072800009010901090109010901090109010901AE
:10729000090109010901090109010901090109019E
:1072A000090109010901090109010901893A80FE61
:1072B00080FE80FE80FE80FE80FE80FE80FE80FEDE
:1072C00080FE80FE80FE80FE80FEA3CD29010901A4
:1072D000090109010901090109010901090109015E
:1072E000090109010901090109010901090109014E
:1072F000090109010901275B80FE80FE80FE80FEF6
:1073000080FE80FE80FE80FE80FE80FE80FE80FE8D
:1073100080FE80FE80FE80FE80FE80FE80FE80FE7D
:1073200080FE80FE80FE80FE80FE80FE80FE80FE6D
:1073300080FE80FE80FE80FE80FE80FE80FE80FE5D
:1073400080FE80FE80FE80FE80FE80FE80FE80FE4D
:1073500080FE80FE42EE891109010901090109013F
:1073600009010901090109010901090109010901CD
:1073700009010901090109010901090109010901BD
:1073800009010901090109010901090109010901AD
:10739000090109010901090109010901090109019D
:1073A000090109010901090109010901E921C2D500
:1073B00080FE80FE80FE80FE80FE80FE80FE80FEDD
:1073C00080FE80FE80FE80FE80FE80FE80FE80FECD
:1073D00080FE02E64A0909010901090109010901C2
:1073E000090109010901090109010901090109014D
:1073F000090109010901090109010901090109013D
:10740000C4A480FE80FE80FE80FE80FE80FE80FEA2
:1074100080FE80FE80FE80FE80FE80FE80FE676B28
:10742000090109010901090109010901090109010C
:1074300009010901090109010901090109010901FC
:107440000901090109010901290163C580FE80FEC6
:1074500080FE80FE80FE80FE80FE80FE80FE80FE3C
:1074600080FE80FE80FE80FE80FE80FE80FE80FE2C
:1074700080FE80FE80FE80FE80FE80FE80FE80FE1C
:1074800080FE80FE80FE80FE80FE80FE80FE80FE0C
:1074900080FE80FE80FE80FE80FE80FE80FE80FEFC
:1074A00080FE80FE80FE80FE859C090109010901A5
:1074B000090109010901090109010901090109017C
:1074C000090109010901090109010901090109016C
:1074D000090109010901090109010901090109015C
:1074E000090109010901090109010901090109014C
:1074F000090109010901090109010901090109013C
:107500000901A819A1D580FE80FE80FE80FE80FEC4
:1075100080FE80FE80FE80FE80FE80FE80FE80FE7B
:1075200080FE80FE80FE80FEE7520901090109010C
:1075300009010901090109010901090109010901FB
:1075400009010901090109010901090109010901EB
:107550000901A91941EE80FE80FE80FE80FE80FEBA
:1075600080FE80FE80FE80FE80FE80FE80FE80FE2B
:1075700021EE691109010901090109010901090146
:1075800009010901090109010901090109010901AB
:10759000090109010901090109010901483260F6DF
:1075A00080FE80FE80FE80FE80FE80FE80FE80FEEB
:1075B00080FE80FE80FE80FE80FE80FE80FE80FEDB
:1075C00080FE80FE80FE80FE80FE80FE80FE80FECB
:1075D00080FE80FE80FE80FE80FE80FE80FE80FEBB
:1075E00080FE80FE80FE80FE80FE80FE80FE80FEAB
:1075F00080FE80FE80FE80FE80FE80FE4832090113
:10760000090109010901090109010901090109012A
:10761000090109010901090109010901090109011A
:10762000090109010901090109010901090109010A
:1076300009010901090109010901090109010901FA
:1076400009010901090109010901090109010901EA
:107650000901090109010901891164C580FE80FE43
:1076600080FE80FE80FE80FE80FE80FE80FE80FE2A
:1076700080FE80FE80FE80FE80FE80FEA69C0901CA
:1076800009010901090109010901090109010901AA
:10769000090109010901090109010901090109019A
:1076A000090109010901C77B80FE80FE80FE80FE82
:1076B00080FE80FE80FE80FE80FE80FE80FE80FEDA
:1076C00080FE80FE65940901090109010901090193
:1076D000090109010901090109010901090109015A
:1076E000090109010901090109010901090109014A
:1076F000859C80FE80FE80FE80FE80FE80FE80FEF7
:1077000080FE80FE80FE80FE80FE80FE80FE80FE89
:1077100080FE80FE80FE80FE80FE80FE80FE80FE79
:1077200080FE80FE80FE80FE80FE80FE80FE80FE69
:1077300080FE80FE80FE80FE80FE80FE80FE80FE59
:1077400080FE80FE80FE80FE80FE80FE80FE63C59F
:1077500029010901090109010901090109010901B9
:1077600009010901090109010901090109010901C9
:1077700009010901090109010901090109010901B9
:1077800009010901090109010901090109010901A9
:107790000901090109010901090109010901090199
:1077A0000901090109010901090109010901690921
:1077B00023BD80FE80FE80FE80FE80FE80FE80FE77
:1077C00080FE80FE80FE80FE80FE80FE80FE80FEC9
:1077D000E2DD290109010901090109010901090184
:1077E0000901090109010901090109010901090149
:1077F00009010901090109014901E2DD80FE80FE5C
:1078000080FE80FE80FE80FE80FE80FE80FE80FE88
:1078100080FE80FE80FE60F6292A09010901090127
:107820000901090109010901090109010901090108
:1078300009010901090109010901090109010901F8
:107840000901891142EE80FE80FE80FE80FE80FEEE
:1078500080FE80FE80FE80FE80FE80FE80FE80FE38
:1078600080FE80FE80FE80FE80FE80FE80FE80FE28
:1078700080FE80FE80FE80FE80FE80FE80FE80FE18
:1078800080FE80FE80FE80FE80FE80FE80FE80FE08
:1078900080FE80FE80FE80FE80FE80FE80FE80FEF8
:1078A00080FE485B0901090109010901090109017B
:1078B0000901090109010901090109010901090178
:1078C0000901090109010901090109010901090168
:1078D0000901090109010901090109010901090158
:1078E0000901090109010901090109010901090148
:1078F0000901090109010901090109010901090138
:1079000009010901490903B580FE80FE80FE80FE61
:1079100080FE80FE80FE80FE80FE80FE80FE80FE77
:1079200080FE80FE80F68911090109010901090123
:1079300009010901090109010901090109010901F7
:10794000090109010901090109010901E75280FE44
:1079500080FE80FE80FE80FE80FE80FE80FE80FE37
:1079600080FE80FE80FE80FE80FE43BD290109016D
:1079700009010901090109010901090109010901B7
:1079800009010901090109010901090109010901A7
:10799000090109010901A77380FE80FE80FE80FEB7
:1079A00080FE80FE80FE80FE80FE80FE80FE80FEE7
:1079B00080FE80FE80FE80FE80FE80FE80FE80FED7
:1079C00080FE80FE80FE80FE80FE80FE80FE80FEC7
:1079D00080FE80FE80FE80FE80FE80FE80FE80FEB7
:1079E00080FE80FE80FE80FE80FE80FE80FE80FEA7
:1079F00080FE80FE22E64909090109010901090109
:107A00000901090109010901090109010901090126
:107A10000901090109010901090109010901090116
:107A20000901090109010901090109010901090106
:107A300009010901090109010901090109010901F6
:107A400009010901090109010901090109010901E6
:107A500009010901090109010901891101E680FEF5
:107A600080FE80FE80FE80FE80FE80FE80FE80FE26
:107A700080FE80FE80FE80FE80FE4A320901090100
:107A800009010901090109010901090109010901A6
:107A90000901090109010901090109010901290176
:107AA00004B580FE80FE80FE80FE80FE80FE80FEAB
:107AB00080FE80FE80FE80FE80FE80FE80FE075BF2
:107AC0000901090109010901090109010901090166
:107AD0000901090109010901090109010901090156
:107AE00009010901090109012901A3D580FE80FED0
:107AF00080FE80FE80FE80FE80FE80FE80FE80FE96
:107B000080FE80FE80FE80FE80FE80FE80FE80FE85
:107B100080FE80FE80FE80FE80FE80FE80FE80FE75
:107B200080FE80FE80FE80FE80FE80FE80FE80FE65
:107B300080FE80FE80FE80FE80FE80FE80FE80FE55
:107B400080FE80FE80FE80FE258C0901090109016E
:107B500009010901090109010901090109010901D5
:107B600009010901090109010901090109010901C5
:107B700009010901090109010901090109010901B5
:107B800009010901090109010901090109010901A5
:107B90000901090109010901090109010901090195
:107BA0000901090109010901090109010901090185
:107BB000068480FE80FE80FE80FE80FE80FE80FEC9
:107BC00080FE80FE80FE80FE80FE80FE80FE86427B
:107BD0000901090109010901090109010901090155
:107BE0000901090109010901090109010901090145
:107BF0000901E92161F680FE80FE80FE80FE80FEA4
:107C000080FE80FE80FE80FE80FE80FE80FE80FE84
:107C100002DE4909090109010901090109010901F6
:107C20000901090109010901090109010901090104
:107C3000090109010901090109010901A84280FEA0
:107C400080FE80FE80FE80FE80FE80FE80FE80FE44
:107C500080FE80FE80FE80FE80FE80FE80FE80FE34
:107C600080FE80FE80FE80FE80FE80FE80FE80FE24
:107C700080FE80FE80FE80FE80FE80FE80FE80FE14
:107C800080FE80FE80FE80FE80FE80FE80FE80FE04
:107C900080FE80FE80FE80FE80FE60F6E921090104
:107CA0000901090109010901090109010901090184
:107CB0000901090109010901090109010901090174
:107CC0000901090109010901090109010901090164
:107CD0000901090109010901090109010901090154
:107CE0000901090109010901090109010901090144
:107CF0000901090109010901090109010901090134
:107D000009010901876B80FE80FE80FE80FE80FEF7
:107D100080FE80FE80FE80FE80FE80FE80FE80FE73
:107D200080FE8642090109010901090109010901D1
:107D300009010901090109010901090109010901F3
:107D4000090109010901258C80FE80FE80FE80FE6C
:107D500080FE80FE80FE80FE80FE80FE80FE80FE33
:107D600080FE80FE0684090109010901090109015B
:107D700009010901090109010901090109010901B3
:107D800009010901090109010901090109010901A3
:107D9000E4AC80FE80FE80FE80FE80FE80FE80FEE1
:107DA00080FE80FE80FE80FE80FE80FE80FE80FEE3
:107DB00080FE80FE80FE80FE80FE80FE80FE80FED3
:107DC00080FE80FE80FE80FE80FE80FE80FE80FEC3
:107DD00080FE80FE80FE80FE80FE80FE80FE80FEB3
:107DE00080FE80FE80FE80FE80FE80FE80FE04B568
:107DF0000901090109010901090109010901090133
:107E00000901090109010901090109010901090122
:107E10000901090109010901090109010901090112
:107E20000901090109010901090109010901090102
:107E300009010901090109010901090109010901F2
:107E400009010901090109010901090109010901E2
:107E50000901090109010901E4AC80FE80FE80FEF0
:107E600080FE80FE80FE80FE80FE80FE80FE80FE22
:107E700080FE80FE80FE2A2A09010901090109010C
:107E800009010901090109010901090109010901A2
:107E90000901090109010901690922E680FE80FE44
:107EA00080FE80FE80FE80FE80FE80FE80FE80FEE2
:107EB00080FE80FE80FE60F6C921090109010901EA
:107EC0000901090109010901090109010901090162
:107ED0000901090109010901090109010901090152
:107EE0000901C91960F680FE80FE80FE80FE80FEDA
:107EF00080FE80FE80FE80FE80FE80FE80FE80FE92
:107F000080FE80FE80FE80FE80FE80FE80FE80FE81
:107F100080FE80FE80FE80FE80FE80FE80FE80FE71
:107F200080FE80FE80FE80FE80FE80FE80FE80FE61
:107F300080FE80FE80FE80FE80FE80FE80FE80FE51
:107F400080FE2784090109010901090109010901CC
:107F500009010901090109010901090109010901D1
:107F600009010901090109010901090109010901C1
:107F700009010901090109010901090109010901B1
:107F800009010901090109010901090109010901A1
:107F90000901090109010901090109010901090191
:107FA00009010901090109012901A77360F680FE91
:107FB00080FE80FE80FE80FE80FE80FE80FE80FED1
:107FC00080FE80FE80FE80FE80F689110901090195
:107FD0000901090109010901090109010901090151
:107FE000090109010901090109010901485B80FE34
:107FF00080FE80FE80FE80FE80FE80FE80FE80FE91
:1080000080FE80FE80FE80FE80FEE4AC0901090156
:108010000901090109010901090109010901090110
:108020000901090109010901090109010901090100
:10803000090109010901E67B80FE80FE80FE80FEC9
:1080400080FE80FE80FE80FE80FE80FE80FE80FE40
:1080500080FE80FE80FE80FE80FE80FE80FE80FE30
:1080600080FE80FE80FE80FE80FE80FE80FE80FE20
:1080700080FE80FE80FE80FE80FE80FE80FE80FE10
:1080800080FE80FE80FE80FE80FE80FE80FE80FE00
:1080900080FE80FE80FE41EE869C698C698C698C36
:1080A000698C698C698C698C698C698C698C698C28
:1080B000698C698C698C698C698C698C698C698C18
:1080C000698C698C698C698C698C698C698C698C08
:1080D000698C698C698C698C698C698C698C698CF8
:1080E000698C698C698C698C698C698C698C698CE8
:1080F000698C698C698C698C698CA4A4C2D580FE5A
:1081000080FE80FE80FE80FE80FE80FE80FE80FE7F
:1081100080FE80FE80FE80FE80FE80FEE2DD290182
:1081200009010901090109010901090109010901FF
:1081300009010901090109010901090109010901EF
:1081400083C580FE80FE80FE80FE80FE80FE80FE75
:1081500080FE80FE80FE80FE80FE80FE80FEA842C3
:1081600009010901090109010901090109010901BF
:1081700009010901090109010901090109010901AF
:108180000901090109010901490902DE80FE80FE99
:1081900080FE80FE80FE80FE80FE80FE80FE80FEEF
:1081A00080FE80FE80FE80FE80FE80FE80FE80FEDF
:1081B00080FE80FE80FE80FE80FE80FE80FE80FECF
:1081C00080FE80FE80FE80FE80FE80FE80FE80FEBF
:1081D00080FE80FE80FE80FE80FE80FE80FE80FEAF
:1081E00080FE80FE80FE80FE80FE80FE80FE80FE9F
:1081F00080FE80FE80FE80FE80FE80FE80FE80FE8F
:1082000080FE80FE80FE80FE80FE80FE80FE80FE7E
:1082100080FE80FE80FE80FE80FE80FE80FE80FE6E
:1082200080FE80FE80FE80FE80FE80FE80FE80FE5E
:1082300080FE80FE80FE80FE80FE80FE80FE80FE4E
:1082400080FE80FE80FE80FE80FE80FE80FE80FE3E
:1082500080FE80FE80FE80FE80FE80FE80FE80FE2E
:1082600080FE80FE80FE80FE80FE80FE80FE80FE1E
:10827000A69C090109010901090109010901090176
:10828000090109010901090109010901090109019E
:108290000901493280FE80FE80FE80FE80FE80FE65
:1082A00080FE80FE80FE80FE80FE80FE80FE80FEDE
:1082B000C2D52901090109010901090109010901C1
:1082C000090109010901090109010901090109015E
:1082D000090109010901090109010901085380FE89
:1082E00080FE80FE80FE80FE80FE80FE80FE80FE9E
:1082F00080FE80FE80FE80FE80FE80FE80FE80FE8E
:1083000080FE80FE80FE80FE80FE80FE80FE80FE7D
:1083100080FE80FE80FE80FE80FE80FE80FE80FE6D
:1083200080FE80FE80FE80FE80FE80FE80FE80FE5D
:1083300080FE80FE80FE80FE80FE80FE80FE80FE4D
:1083400080FE80FE80FE80FE80FE80FE80FE80FE3D
:1083500080FE80FE80FE80FE80FE80FE80FE80FE2D
:1083600080FE80FE80FE80FE80FE80FE80FE80FE1D
:1083700080FE80FE80FE80FE80FE80FE80FE80FE0D
:1083800080FE80FE80FE80FE80FE80FE80FE80FEFD
:1083900080FE80FE80FE80FE80FE80FE80FE80FEED
:1083A00080FE80FE80FE80FE80FE80FE80FE80FEDD
:1083B00080FE80FE80FE80FE80FE80FE80FE80FECD
:1083C00080FE80FE07530901090109010901090125
:1083D000090109010901090109010901090109014D
:1083E000090109010901869C80FE80FE80FE80FE55
:1083F00080FE80FE80FE80FE80FE80FE80FE80FE8D
:1084000080FE80FEA7730901090109010901090124
:10841000090109010901090109010901090109010C
